{
  "_format": "hh-sol-artifact-1",
  "contractName": "NameService",
  "sourceName": "contracts/NameService.sol",
  "abi": [
    {
      "inputs": [],
      "stateMutability": "nonpayable",
      "type": "constructor"
    },
    {
      "inputs": [
        {
          "internalType": "address",
          "name": "sender",
          "type": "address"
        },
        {
          "internalType": "uint256",
          "name": "tokenId",
          "type": "uint256"
        },
        {
          "internalType": "address",
          "name": "owner",
          "type": "address"
        }
      ],
      "name": "ERC721IncorrectOwner",
      "type": "error"
    },
    {
      "inputs": [
        {
          "internalType": "address",
          "name": "operator",
          "type": "address"
        },
        {
          "internalType": "uint256",
          "name": "tokenId",
          "type": "uint256"
        }
      ],
      "name": "ERC721InsufficientApproval",
      "type": "error"
    },
    {
      "inputs": [
        {
          "internalType": "address",
          "name": "approver",
          "type": "address"
        }
      ],
      "name": "ERC721InvalidApprover",
      "type": "error"
    },
    {
      "inputs": [
        {
          "internalType": "address",
          "name": "operator",
          "type": "address"
        }
      ],
      "name": "ERC721InvalidOperator",
      "type": "error"
    },
    {
      "inputs": [
        {
          "internalType": "address",
          "name": "owner",
          "type": "address"
        }
      ],
      "name": "ERC721InvalidOwner",
      "type": "error"
    },
    {
      "inputs": [
        {
          "internalType": "address",
          "name": "receiver",
          "type": "address"
        }
      ],
      "name": "ERC721InvalidReceiver",
      "type": "error"
    },
    {
      "inputs": [
        {
          "internalType": "address",
          "name": "sender",
          "type": "address"
        }
      ],
      "name": "ERC721InvalidSender",
      "type": "error"
    },
    {
      "inputs": [
        {
          "internalType": "uint256",
          "name": "tokenId",
          "type": "uint256"
        }
      ],
      "name": "ERC721NonexistentToken",
      "type": "error"
    },
    {
      "anonymous": false,
      "inputs": [
        {
          "indexed": true,
          "internalType": "address",
          "name": "owner",
          "type": "address"
        },
        {
          "indexed": true,
          "internalType": "address",
          "name": "approved",
          "type": "address"
        },
        {
          "indexed": true,
          "internalType": "uint256",
          "name": "tokenId",
          "type": "uint256"
        }
      ],
      "name": "Approval",
      "type": "event"
    },
    {
      "anonymous": false,
      "inputs": [
        {
          "indexed": true,
          "internalType": "address",
          "name": "owner",
          "type": "address"
        },
        {
          "indexed": true,
          "internalType": "address",
          "name": "operator",
          "type": "address"
        },
        {
          "indexed": false,
          "internalType": "bool",
          "name": "approved",
          "type": "bool"
        }
      ],
      "name": "ApprovalForAll",
      "type": "event"
    },
    {
      "anonymous": false,
      "inputs": [
        {
          "indexed": false,
          "internalType": "string",
          "name": "domain",
          "type": "string"
        },
        {
          "indexed": false,
          "internalType": "address",
          "name": "owner",
          "type": "address"
        }
      ],
      "name": "DomainMinted",
      "type": "event"
    },
    {
      "anonymous": false,
      "inputs": [
        {
          "indexed": true,
          "internalType": "address",
          "name": "from",
          "type": "address"
        },
        {
          "indexed": true,
          "internalType": "address",
          "name": "to",
          "type": "address"
        },
        {
          "indexed": true,
          "internalType": "uint256",
          "name": "tokenId",
          "type": "uint256"
        }
      ],
      "name": "Transfer",
      "type": "event"
    },
    {
      "inputs": [
        {
          "internalType": "address",
          "name": "to",
          "type": "address"
        },
        {
          "internalType": "uint256",
          "name": "tokenId",
          "type": "uint256"
        }
      ],
      "name": "approve",
      "outputs": [],
      "stateMutability": "nonpayable",
      "type": "function"
    },
    {
      "inputs": [
        {
          "internalType": "address",
          "name": "owner",
          "type": "address"
        }
      ],
      "name": "balanceOf",
      "outputs": [
        {
          "internalType": "uint256",
          "name": "",
          "type": "uint256"
        }
      ],
      "stateMutability": "view",
      "type": "function"
    },
    {
      "inputs": [
        {
          "internalType": "uint256",
          "name": "tokenId",
          "type": "uint256"
        }
      ],
      "name": "getApproved",
      "outputs": [
        {
          "internalType": "address",
          "name": "",
          "type": "address"
        }
      ],
      "stateMutability": "view",
      "type": "function"
    },
    {
      "inputs": [
        {
          "internalType": "address",
          "name": "owner",
          "type": "address"
        },
        {
          "internalType": "address",
          "name": "operator",
          "type": "address"
        }
      ],
      "name": "isApprovedForAll",
      "outputs": [
        {
          "internalType": "bool",
          "name": "",
          "type": "bool"
        }
      ],
      "stateMutability": "view",
      "type": "function"
    },
    {
      "inputs": [
        {
          "internalType": "string",
          "name": "_name",
          "type": "string"
        },
        {
          "internalType": "address",
          "name": "_owner",
          "type": "address"
        }
      ],
      "name": "issueName",
      "outputs": [],
      "stateMutability": "nonpayable",
      "type": "function"
    },
    {
      "inputs": [],
      "name": "name",
      "outputs": [
        {
          "internalType": "string",
          "name": "",
          "type": "string"
        }
      ],
      "stateMutability": "view",
      "type": "function"
    },
    {
      "inputs": [
        {
          "internalType": "string",
          "name": "",
          "type": "string"
        }
      ],
      "name": "nameToAddress",
      "outputs": [
        {
          "internalType": "address",
          "name": "",
          "type": "address"
        }
      ],
      "stateMutability": "view",
      "type": "function"
    },
    {
      "inputs": [
        {
          "internalType": "string",
          "name": "",
          "type": "string"
        }
      ],
      "name": "nameToId",
      "outputs": [
        {
          "internalType": "uint256",
          "name": "",
          "type": "uint256"
        }
      ],
      "stateMutability": "view",
      "type": "function"
    },
    {
      "inputs": [
        {
          "internalType": "uint256",
          "name": "tokenId",
          "type": "uint256"
        }
      ],
      "name": "ownerOf",
      "outputs": [
        {
          "internalType": "address",
          "name": "",
          "type": "address"
        }
      ],
      "stateMutability": "view",
      "type": "function"
    },
    {
      "inputs": [
        {
          "internalType": "address",
          "name": "from",
          "type": "address"
        },
        {
          "internalType": "address",
          "name": "to",
          "type": "address"
        },
        {
          "internalType": "uint256",
          "name": "tokenId",
          "type": "uint256"
        }
      ],
      "name": "safeTransferFrom",
      "outputs": [],
      "stateMutability": "nonpayable",
      "type": "function"
    },
    {
      "inputs": [
        {
          "internalType": "address",
          "name": "from",
          "type": "address"
        },
        {
          "internalType": "address",
          "name": "to",
          "type": "address"
        },
        {
          "internalType": "uint256",
          "name": "tokenId",
          "type": "uint256"
        },
        {
          "internalType": "bytes",
          "name": "data",
          "type": "bytes"
        }
      ],
      "name": "safeTransferFrom",
      "outputs": [],
      "stateMutability": "nonpayable",
      "type": "function"
    },
    {
      "inputs": [
        {
          "internalType": "string",
          "name": "_name",
          "type": "string"
        },
        {
          "internalType": "address",
          "name": "_address",
          "type": "address"
        }
      ],
      "name": "setAddress",
      "outputs": [],
      "stateMutability": "nonpayable",
      "type": "function"
    },
    {
      "inputs": [
        {
          "internalType": "address",
          "name": "operator",
          "type": "address"
        },
        {
          "internalType": "bool",
          "name": "approved",
          "type": "bool"
        }
      ],
      "name": "setApprovalForAll",
      "outputs": [],
      "stateMutability": "nonpayable",
      "type": "function"
    },
    {
      "inputs": [
        {
          "internalType": "bytes4",
          "name": "interfaceId",
          "type": "bytes4"
        }
      ],
      "name": "supportsInterface",
      "outputs": [
        {
          "internalType": "bool",
          "name": "",
          "type": "bool"
        }
      ],
      "stateMutability": "view",
      "type": "function"
    },
    {
      "inputs": [],
      "name": "symbol",
      "outputs": [
        {
          "internalType": "string",
          "name": "",
          "type": "string"
        }
      ],
      "stateMutability": "view",
      "type": "function"
    },
    {
      "inputs": [
        {
          "internalType": "uint256",
          "name": "tokenId",
          "type": "uint256"
        }
      ],
      "name": "tokenURI",
      "outputs": [
        {
          "internalType": "string",
          "name": "",
          "type": "string"
        }
      ],
      "stateMutability": "view",
      "type": "function"
    },
    {
      "inputs": [],
      "name": "totalSupply",
      "outputs": [
        {
          "internalType": "uint256",
          "name": "",
          "type": "uint256"
        }
      ],
      "stateMutability": "view",
      "type": "function"
    },
    {
      "inputs": [
        {
          "internalType": "address",
          "name": "from",
          "type": "address"
        },
        {
          "internalType": "address",
          "name": "to",
          "type": "address"
        },
        {
          "internalType": "uint256",
          "name": "tokenId",
          "type": "uint256"
        }
      ],
      "name": "transferFrom",
      "outputs": [],
      "stateMutability": "nonpayable",
      "type": "function"
    }
  ],
  "bytecode": "0x608060405260006006553480156200001657600080fd5b506040518060400160405280600b81526020017f4e616d65536572766963650000000000000000000000000000000000000000008152506040518060400160405280600281526020017f4e53000000000000000000000000000000000000000000000000000000000000815250816000908162000094919062000329565b508060019081620000a6919062000329565b50505062000410565b600081519050919050565b7f4e487b7100000000000000000000000000000000000000000000000000000000600052604160045260246000fd5b7f4e487b7100000000000000000000000000000000000000000000000000000000600052602260045260246000fd5b600060028204905060018216806200013157607f821691505b602082108103620001475762000146620000e9565b5b50919050565b60008190508160005260206000209050919050565b60006020601f8301049050919050565b600082821b905092915050565b600060088302620001b17fffffffffffffffffffffffffffffffffffffffffffffffffffffffffffffffff8262000172565b620001bd868362000172565b95508019841693508086168417925050509392505050565b6000819050919050565b6000819050919050565b60006200020a62000204620001fe84620001d5565b620001df565b620001d5565b9050919050565b6000819050919050565b6200022683620001e9565b6200023e620002358262000211565b8484546200017f565b825550505050565b600090565b6200025562000246565b620002628184846200021b565b505050565b5b818110156200028a576200027e6000826200024b565b60018101905062000268565b5050565b601f821115620002d957620002a3816200014d565b620002ae8462000162565b81016020851015620002be578190505b620002d6620002cd8562000162565b83018262000267565b50505b505050565b600082821c905092915050565b6000620002fe60001984600802620002de565b1980831691505092915050565b6000620003198383620002eb565b9150826002028217905092915050565b6200033482620000af565b67ffffffffffffffff81111562000350576200034f620000ba565b5b6200035c825462000118565b620003698282856200028e565b600060209050601f831160018114620003a157600084156200038c578287015190505b6200039885826200030b565b86555062000408565b601f198416620003b1866200014d565b60005b82811015620003db57848901518255600182019150602085019450602081019050620003b4565b86831015620003fb5784890151620003f7601f891682620002eb565b8355505b6001600288020188555050505b505050505050565b6123a780620004206000396000f3fe608060405234801561001057600080fd5b50600436106101165760003560e01c80636352211e116100a2578063a22cb46511610071578063a22cb465146102f1578063b88d4fde1461030d578063c87b56dd14610329578063e985e9c514610359578063f6d8f2cb1461038957610116565b80636352211e1461025757806370a082311461028757806395d89b41146102b75780639b2ea4bd146102d557610116565b8063095ea7b3116100e9578063095ea7b3146101c957806318160ddd146101e557806323b872dd1461020357806342842e0e1461021f57806351dd48b21461023b57610116565b806301ffc9a71461011b57806306fdde031461014b578063081812fc1461016957806308d88aad14610199575b600080fd5b61013560048036038101906101309190611915565b6103b9565b604051610142919061195d565b60405180910390f35b61015361049b565b6040516101609190611a08565b60405180910390f35b610183600480360381019061017e9190611a60565b61052d565b6040516101909190611ace565b60405180910390f35b6101b360048036038101906101ae9190611c1e565b610549565b6040516101c09190611ace565b60405180910390f35b6101e360048036038101906101de9190611c93565b610592565b005b6101ed6105a8565b6040516101fa9190611ce2565b60405180910390f35b61021d60048036038101906102189190611cfd565b6105ae565b005b61023960048036038101906102349190611cfd565b6106b0565b005b61025560048036038101906102509190611d50565b6106d0565b005b610271600480360381019061026c9190611a60565b6107b7565b60405161027e9190611ace565b60405180910390f35b6102a1600480360381019061029c9190611dac565b6107c9565b6040516102ae9190611ce2565b60405180910390f35b6102bf610883565b6040516102cc9190611a08565b60405180910390f35b6102ef60048036038101906102ea9190611d50565b610915565b005b61030b60048036038101906103069190611e05565b610a0a565b005b61032760048036038101906103229190611ee6565b610a20565b005b610343600480360381019061033e9190611a60565b610a3d565b6040516103509190611a08565b60405180910390f35b610373600480360381019061036e9190611f69565b610aa6565b604051610380919061195d565b60405180910390f35b6103a3600480360381019061039e9190611c1e565b610b3a565b6040516103b09190611ce2565b60405180910390f35b60007f80ac58cd000000000000000000000000000000000000000000000000000000007bffffffffffffffffffffffffffffffffffffffffffffffffffffffff1916827bffffffffffffffffffffffffffffffffffffffffffffffffffffffff1916148061048457507f5b5e139f000000000000000000000000000000000000000000000000000000007bffffffffffffffffffffffffffffffffffffffffffffffffffffffff1916827bffffffffffffffffffffffffffffffffffffffffffffffffffffffff1916145b80610494575061049382610b68565b5b9050919050565b6060600080546104aa90611fd8565b80601f01602080910402602001604051908101604052809291908181526020018280546104d690611fd8565b80156105235780601f106104f857610100808354040283529160200191610523565b820191906000526020600020905b81548152906001019060200180831161050657829003601f168201915b5050505050905090565b600061053882610bd2565b5061054282610c5a565b9050919050565b6008818051602081018201805184825260208301602085012081835280955050505050506000915054906101000a900473ffffffffffffffffffffffffffffffffffffffff1681565b6105a4828261059f610c97565b610c9f565b5050565b60065481565b600073ffffffffffffffffffffffffffffffffffffffff168273ffffffffffffffffffffffffffffffffffffffff16036106205760006040517f64a0ae920000000000000000000000000000000000000000000000000000000081526004016106179190611ace565b60405180910390fd5b6000610634838361062f610c97565b610cb1565b90508373ffffffffffffffffffffffffffffffffffffffff168173ffffffffffffffffffffffffffffffffffffffff16146106aa578382826040517f64283d7b0000000000000000000000000000000000000000000000000000000081526004016106a193929190612009565b60405180910390fd5b50505050565b6106cb83838360405180602001604052806000815250610a20565b505050565b60006007836040516106e2919061207c565b90815260200160405180910390205414610731576040517f08c379a0000000000000000000000000000000000000000000000000000000008152600401610728906120df565b60405180910390fd5b600660008154809291906107449061212e565b919050555060065460078360405161075c919061207c565b90815260200160405180910390208190555061077a81600654610ecb565b7ff17d2c9304af8d30834ef2e580a67e6a2da4ea4a54c339e40bd2c71aca0debf882826040516107ab929190612176565b60405180910390a15050565b60006107c282610bd2565b9050919050565b60008073ffffffffffffffffffffffffffffffffffffffff168273ffffffffffffffffffffffffffffffffffffffff160361083c5760006040517f89c62b640000000000000000000000000000000000000000000000000000000081526004016108339190611ace565b60405180910390fd5b600360008373ffffffffffffffffffffffffffffffffffffffff1673ffffffffffffffffffffffffffffffffffffffff168152602001908152602001600020549050919050565b60606001805461089290611fd8565b80601f01602080910402602001604051908101604052809291908181526020018280546108be90611fd8565b801561090b5780601f106108e05761010080835404028352916020019161090b565b820191906000526020600020905b8154815290600101906020018083116108ee57829003601f168201915b5050505050905090565b3373ffffffffffffffffffffffffffffffffffffffff1661095360078460405161093f919061207c565b908152602001604051809103902054610fc4565b73ffffffffffffffffffffffffffffffffffffffff16146109a9576040517f08c379a00000000000000000000000000000000000000000000000000000000081526004016109a0906121f2565b60405180910390fd5b806008836040516109ba919061207c565b908152602001604051809103902060006101000a81548173ffffffffffffffffffffffffffffffffffffffff021916908373ffffffffffffffffffffffffffffffffffffffff1602179055505050565b610a1c610a15610c97565b8383611001565b5050565b610a2b8484846105ae565b610a3784848484611170565b50505050565b6060610a4882610bd2565b506000610a53611327565b90506000815111610a735760405180602001604052806000815250610a9e565b80610a7d8461133e565b604051602001610a8e929190612212565b6040516020818303038152906040525b915050919050565b6000600560008473ffffffffffffffffffffffffffffffffffffffff1673ffffffffffffffffffffffffffffffffffffffff16815260200190815260200160002060008373ffffffffffffffffffffffffffffffffffffffff1673ffffffffffffffffffffffffffffffffffffffff16815260200190815260200160002060009054906101000a900460ff16905092915050565b6007818051602081018201805184825260208301602085012081835280955050505050506000915090505481565b60007f01ffc9a7000000000000000000000000000000000000000000000000000000007bffffffffffffffffffffffffffffffffffffffffffffffffffffffff1916827bffffffffffffffffffffffffffffffffffffffffffffffffffffffff1916149050919050565b600080610bde83610fc4565b9050600073ffffffffffffffffffffffffffffffffffffffff168173ffffffffffffffffffffffffffffffffffffffff1603610c5157826040517f7e273289000000000000000000000000000000000000000000000000000000008152600401610c489190611ce2565b60405180910390fd5b80915050919050565b60006004600083815260200190815260200160002060009054906101000a900473ffffffffffffffffffffffffffffffffffffffff169050919050565b600033905090565b610cac838383600161140c565b505050565b600080610cbd84610fc4565b9050600073ffffffffffffffffffffffffffffffffffffffff168373ffffffffffffffffffffffffffffffffffffffff1614610cff57610cfe8184866115d1565b5b600073ffffffffffffffffffffffffffffffffffffffff168173ffffffffffffffffffffffffffffffffffffffff1614610d9057610d4160008560008061140c565b6001600360008373ffffffffffffffffffffffffffffffffffffffff1673ffffffffffffffffffffffffffffffffffffffff168152602001908152602001600020600082825403925050819055505b600073ffffffffffffffffffffffffffffffffffffffff168573ffffffffffffffffffffffffffffffffffffffff1614610e13576001600360008773ffffffffffffffffffffffffffffffffffffffff1673ffffffffffffffffffffffffffffffffffffffff168152602001908152602001600020600082825401925050819055505b846002600086815260200190815260200160002060006101000a81548173ffffffffffffffffffffffffffffffffffffffff021916908373ffffffffffffffffffffffffffffffffffffffff160217905550838573ffffffffffffffffffffffffffffffffffffffff168273ffffffffffffffffffffffffffffffffffffffff167fddf252ad1be2c89b69c2b068fc378daa952ba7f163c4a11628f55a4df523b3ef60405160405180910390a4809150509392505050565b600073ffffffffffffffffffffffffffffffffffffffff168273ffffffffffffffffffffffffffffffffffffffff1603610f3d5760006040517f64a0ae92000000000000000000000000000000000000000000000000000000008152600401610f349190611ace565b60405180910390fd5b6000610f4b83836000610cb1565b9050600073ffffffffffffffffffffffffffffffffffffffff168173ffffffffffffffffffffffffffffffffffffffff1614610fbf5760006040517f73c6ac6e000000000000000000000000000000000000000000000000000000008152600401610fb69190611ace565b60405180910390fd5b505050565b60006002600083815260200190815260200160002060009054906101000a900473ffffffffffffffffffffffffffffffffffffffff169050919050565b600073ffffffffffffffffffffffffffffffffffffffff168273ffffffffffffffffffffffffffffffffffffffff160361107257816040517f5b08ba180000000000000000000000000000000000000000000000000000000081526004016110699190611ace565b60405180910390fd5b80600560008573ffffffffffffffffffffffffffffffffffffffff1673ffffffffffffffffffffffffffffffffffffffff16815260200190815260200160002060008473ffffffffffffffffffffffffffffffffffffffff1673ffffffffffffffffffffffffffffffffffffffff16815260200190815260200160002060006101000a81548160ff0219169083151502179055508173ffffffffffffffffffffffffffffffffffffffff168373ffffffffffffffffffffffffffffffffffffffff167f17307eab39ab6107e8899845ad3d59bd9653f200f220920489ca2b5937696c3183604051611163919061195d565b60405180910390a3505050565b60008373ffffffffffffffffffffffffffffffffffffffff163b1115611321578273ffffffffffffffffffffffffffffffffffffffff1663150b7a026111b4610c97565b8685856040518563ffffffff1660e01b81526004016111d6949392919061228b565b6020604051808303816000875af192505050801561121257506040513d601f19601f8201168201806040525081019061120f91906122ec565b60015b611296573d8060008114611242576040519150601f19603f3d011682016040523d82523d6000602084013e611247565b606091505b50600081510361128e57836040517f64a0ae920000000000000000000000000000000000000000000000000000000081526004016112859190611ace565b60405180910390fd5b805181602001fd5b63150b7a0260e01b7bffffffffffffffffffffffffffffffffffffffffffffffffffffffff1916817bffffffffffffffffffffffffffffffffffffffffffffffffffffffff19161461131f57836040517f64a0ae920000000000000000000000000000000000000000000000000000000081526004016113169190611ace565b60405180910390fd5b505b50505050565b606060405180602001604052806000815250905090565b60606000600161134d84611695565b01905060008167ffffffffffffffff81111561136c5761136b611af3565b5b6040519080825280601f01601f19166020018201604052801561139e5781602001600182028036833780820191505090505b509050600082602001820190505b600115611401578080600190039150507f3031323334353637383961626364656600000000000000000000000000000000600a86061a8153600a85816113f5576113f4612319565b5b049450600085036113ac575b819350505050919050565b80806114455750600073ffffffffffffffffffffffffffffffffffffffff168273ffffffffffffffffffffffffffffffffffffffff1614155b1561157957600061145584610bd2565b9050600073ffffffffffffffffffffffffffffffffffffffff168373ffffffffffffffffffffffffffffffffffffffff16141580156114c057508273ffffffffffffffffffffffffffffffffffffffff168173ffffffffffffffffffffffffffffffffffffffff1614155b80156114d357506114d18184610aa6565b155b1561151557826040517fa9fbf51f00000000000000000000000000000000000000000000000000000000815260040161150c9190611ace565b60405180910390fd5b811561157757838573ffffffffffffffffffffffffffffffffffffffff168273ffffffffffffffffffffffffffffffffffffffff167f8c5be1e5ebec7d5bd14f71427d1e84f3dd0314c0f7b2291e5b200ac8c7c3b92560405160405180910390a45b505b836004600085815260200190815260200160002060006101000a81548173ffffffffffffffffffffffffffffffffffffffff021916908373ffffffffffffffffffffffffffffffffffffffff16021790555050505050565b6115dc8383836117e8565b61169057600073ffffffffffffffffffffffffffffffffffffffff168373ffffffffffffffffffffffffffffffffffffffff160361165157806040517f7e2732890000000000000000000000000000000000000000000000000000000081526004016116489190611ce2565b60405180910390fd5b81816040517f177e802f000000000000000000000000000000000000000000000000000000008152600401611687929190612348565b60405180910390fd5b505050565b600080600090507a184f03e93ff9f4daa797ed6e38ed64bf6a1f01000000000000000083106116f3577a184f03e93ff9f4daa797ed6e38ed64bf6a1f01000000000000000083816116e9576116e8612319565b5b0492506040810190505b6d04ee2d6d415b85acef81000000008310611730576d04ee2d6d415b85acef8100000000838161172657611725612319565b5b0492506020810190505b662386f26fc10000831061175f57662386f26fc10000838161175557611754612319565b5b0492506010810190505b6305f5e1008310611788576305f5e100838161177e5761177d612319565b5b0492506008810190505b61271083106117ad5761271083816117a3576117a2612319565b5b0492506004810190505b606483106117d057606483816117c6576117c5612319565b5b0492506002810190505b600a83106117df576001810190505b80915050919050565b60008073ffffffffffffffffffffffffffffffffffffffff168373ffffffffffffffffffffffffffffffffffffffff16141580156118a057508273ffffffffffffffffffffffffffffffffffffffff168473ffffffffffffffffffffffffffffffffffffffff16148061186157506118608484610aa6565b5b8061189f57508273ffffffffffffffffffffffffffffffffffffffff1661188783610c5a565b73ffffffffffffffffffffffffffffffffffffffff16145b5b90509392505050565b6000604051905090565b600080fd5b600080fd5b60007fffffffff0000000000000000000000000000000000000000000000000000000082169050919050565b6118f2816118bd565b81146118fd57600080fd5b50565b60008135905061190f816118e9565b92915050565b60006020828403121561192b5761192a6118b3565b5b600061193984828501611900565b91505092915050565b60008115159050919050565b61195781611942565b82525050565b6000602082019050611972600083018461194e565b92915050565b600081519050919050565b600082825260208201905092915050565b60005b838110156119b2578082015181840152602081019050611997565b60008484015250505050565b6000601f19601f8301169050919050565b60006119da82611978565b6119e48185611983565b93506119f4818560208601611994565b6119fd816119be565b840191505092915050565b60006020820190508181036000830152611a2281846119cf565b905092915050565b6000819050919050565b611a3d81611a2a565b8114611a4857600080fd5b50565b600081359050611a5a81611a34565b92915050565b600060208284031215611a7657611a756118b3565b5b6000611a8484828501611a4b565b91505092915050565b600073ffffffffffffffffffffffffffffffffffffffff82169050919050565b6000611ab882611a8d565b9050919050565b611ac881611aad565b82525050565b6000602082019050611ae36000830184611abf565b92915050565b600080fd5b600080fd5b7f4e487b7100000000000000000000000000000000000000000000000000000000600052604160045260246000fd5b611b2b826119be565b810181811067ffffffffffffffff82111715611b4a57611b49611af3565b5b80604052505050565b6000611b5d6118a9565b9050611b698282611b22565b919050565b600067ffffffffffffffff821115611b8957611b88611af3565b5b611b92826119be565b9050602081019050919050565b82818337600083830152505050565b6000611bc1611bbc84611b6e565b611b53565b905082815260208101848484011115611bdd57611bdc611aee565b5b611be8848285611b9f565b509392505050565b600082601f830112611c0557611c04611ae9565b5b8135611c15848260208601611bae565b91505092915050565b600060208284031215611c3457611c336118b3565b5b600082013567ffffffffffffffff811115611c5257611c516118b8565b5b611c5e84828501611bf0565b91505092915050565b611c7081611aad565b8114611c7b57600080fd5b50565b600081359050611c8d81611c67565b92915050565b60008060408385031215611caa57611ca96118b3565b5b6000611cb885828601611c7e565b9250506020611cc985828601611a4b565b9150509250929050565b611cdc81611a2a565b82525050565b6000602082019050611cf76000830184611cd3565b92915050565b600080600060608486031215611d1657611d156118b3565b5b6000611d2486828701611c7e565b9350506020611d3586828701611c7e565b9250506040611d4686828701611a4b565b9150509250925092565b60008060408385031215611d6757611d666118b3565b5b600083013567ffffffffffffffff811115611d8557611d846118b8565b5b611d9185828601611bf0565b9250506020611da285828601611c7e565b9150509250929050565b600060208284031215611dc257611dc16118b3565b5b6000611dd084828501611c7e565b91505092915050565b611de281611942565b8114611ded57600080fd5b50565b600081359050611dff81611dd9565b92915050565b60008060408385031215611e1c57611e1b6118b3565b5b6000611e2a85828601611c7e565b9250506020611e3b85828601611df0565b9150509250929050565b600067ffffffffffffffff821115611e6057611e5f611af3565b5b611e69826119be565b9050602081019050919050565b6000611e89611e8484611e45565b611b53565b905082815260208101848484011115611ea557611ea4611aee565b5b611eb0848285611b9f565b509392505050565b600082601f830112611ecd57611ecc611ae9565b5b8135611edd848260208601611e76565b91505092915050565b60008060008060808587031215611f0057611eff6118b3565b5b6000611f0e87828801611c7e565b9450506020611f1f87828801611c7e565b9350506040611f3087828801611a4b565b925050606085013567ffffffffffffffff811115611f5157611f506118b8565b5b611f5d87828801611eb8565b91505092959194509250565b60008060408385031215611f8057611f7f6118b3565b5b6000611f8e85828601611c7e565b9250506020611f9f85828601611c7e565b9150509250929050565b7f4e487b7100000000000000000000000000000000000000000000000000000000600052602260045260246000fd5b60006002820490506001821680611ff057607f821691505b60208210810361200357612002611fa9565b5b50919050565b600060608201905061201e6000830186611abf565b61202b6020830185611cd3565b6120386040830184611abf565b949350505050565b600081905092915050565b600061205682611978565b6120608185612040565b9350612070818560208601611994565b80840191505092915050565b6000612088828461204b565b915081905092915050565b7f4e616d6520616c7265616479206d696e74656400000000000000000000000000600082015250565b60006120c9601383611983565b91506120d482612093565b602082019050919050565b600060208201905081810360008301526120f8816120bc565b9050919050565b7f4e487b7100000000000000000000000000000000000000000000000000000000600052601160045260246000fd5b600061213982611a2a565b91507fffffffffffffffffffffffffffffffffffffffffffffffffffffffffffffffff820361216b5761216a6120ff565b5b600182019050919050565b6000604082019050818103600083015261219081856119cf565b905061219f6020830184611abf565b9392505050565b7f43616c6c6572206973206e6f74206f776e657200000000000000000000000000600082015250565b60006121dc601383611983565b91506121e7826121a6565b602082019050919050565b6000602082019050818103600083015261220b816121cf565b9050919050565b600061221e828561204b565b915061222a828461204b565b91508190509392505050565b600081519050919050565b600082825260208201905092915050565b600061225d82612236565b6122678185612241565b9350612277818560208601611994565b612280816119be565b840191505092915050565b60006080820190506122a06000830187611abf565b6122ad6020830186611abf565b6122ba6040830185611cd3565b81810360608301526122cc8184612252565b905095945050505050565b6000815190506122e6816118e9565b92915050565b600060208284031215612302576123016118b3565b5b6000612310848285016122d7565b91505092915050565b7f4e487b7100000000000000000000000000000000000000000000000000000000600052601260045260246000fd5b600060408201905061235d6000830185611abf565b61236a6020830184611cd3565b939250505056fea264697066735822122002ee0c42a7e8ff0356654131e78009005f99818f2c195f757e62b8679df2b9d964736f6c63430008180033",
  "linkReferences": {},
  "deployedLinkReferences": {}
}